:100000000C94E7000C940F010C940F010C940F0159
:100010000C940F010C940F010C940F010C940A0224
:100020000C940F010C940F010C940F010C940F0110
:100030000C940F010C940F010C940F010C940F0100
:100040000C94A3040C940F010C94C7020C94A1020D
:100050000C940F010C940F010C940F010C940F01E0
:100060000C94A6060C940F01202743002027430080
:1000700000000000240027002A0000000008000201
:100080000100000304070000000000000000005E03
:10009000BCE2613FDD83C29C7E20A3FD1F419DC366
:1000A000217FFCA2401E5F01E3BD3E6082DC237D18
:1000B0009FC1421CFEA0E1BF5D0380DE3C62BEE04A
:1000C000025CDF81633D7C22C09E1D43A1FF461878
:1000D000FAA427799BC584DA3866E5BB5907DB8526
:1000E0006739BAE406581947A5FB7826C49A653BD8
:1000F000D987045AB8E6A7F91B45C6987A24F8A60A
:10010000441A99C7257B3A6486D85B05E7B98CD237
:10011000306EEDB3510F4E10F2AC2F7193CD114FE5
:10012000ADF3702ECC92D38D6F31B2EC0E50AFF197
:10013000134DCE90722C6D33D18F0C52B0EE326CC9
:100140008ED0530DEFB1F0AE4C1291CF2D73CA94F7
:100150007628ABF517490856B4EA6937D58B5709A5
:10016000EBB536688AD495CB2977F4AA4816E9B757
:10017000550B88D6346A2B7597C94A14F6A8742A89
:10018000C896154BA9F7B6E80A54D7896B35000015
:100190000000250028002B0002000000002300269C
:1001A00000290004040404040404040202020202FC
:1001B000020303030303030102040810204080012B
:1001C000020408102001020408102000521011241B
:1001D0001FBECFEFD4E0DEBFCDBF23E0A8EAB1E081
:1001E00001C01D92A632B207E1F711E0A0E0B1E034
:1001F000ECE4F6E202C005900D92A83AB107D9F7F7
:1002000010E0C7EED0E004C02197FE010E94F41078
:10021000C63ED107C9F70E94940C0C9424130C9489
:100220000000CF92DF92EF92FF920F931F93CF9334
:10023000DF936C017A018B01C0E0D0E0CE15DF05C1
:1002400089F0D8016D918D01D601ED91FC9101905D
:10025000F081E02DC6010995892B11F47E0102C0C1
:100260002196ECCFC701DF91CF911F910F91FF90A5
:10027000EF90DF90CF900895FC01918D828D9817BB
:1002800061F0828DDF01A80FB11D5D968C91928D7A
:100290009F5F9F73928F90E008958FEF9FEF089577
:1002A000FC01918D828D981731F0828DE80FF11D40
:1002B000858D90E008958FEF9FEF0895FC01918D5B
:1002C000228D892F90E0805C9F4F821B91098F7354
:1002D000992708958CE492E00E945E0121E0892B29
:1002E00009F420E0822F0895FC01848DDF01A80F1E
:1002F000B11DA35ABF4F2C91848D90E001968F734E
:100300009927848FA689B7892C93A089B1898C916C
:1003100080648C93938D848D981306C00288F38932
:10032000E02D80818F7D80830895EF92FF920F935F
:100330001F93CF93DF93EC0181E0888F9B8D8C8D91
:10034000981305C0E889F989808185FD24C0F62EBF
:100350000B8D10E00F5F1F4F0F731127E02E8C8D58
:10036000E8120CC00FB607FCFACFE889F989808142
:1003700085FFF5CFCE010E947401F1CF8B8DFE0178
:10038000E80FF11DE35AFF4FF0820B8FEA89FB89DA
:100390008081806207C0EE89FF896083E889F989DE
:1003A00080818064808381E090E0DF91CF911F9114
:1003B0000F91FF90EF900895CF93DF93EC01888D1C
:1003C0008823C9F0EA89FB89808185FD05C0A88959
:1003D000B9898C9186FD0FC00FB607FCF5CF8081DF
:1003E00085FFF2CFA889B9898C9185FFEDCFCE0129
:1003F0000E947401E7CFDF91CF91089580E090E0F3
:10040000892B29F00E946A0181110C940000089543
:100410000E94C4121F920F920FB60F9211242F93B5
:100420003F934F935F936F937F938F939F93AF937C
:10043000BF93EF93FF938091480290914902A0915E
:100440004A02B0914B02892B8A2B8B2B59F1809158
:100450004502E0914602F09147029081892780830E
:100460008091480290914902A0914A02B0914B02BA
:10047000181619061A061B060CF03DC0809148029A
:1004800090914902A0914A02B0914B020197A109B3
:10049000B1098093480290934902A0934A02B09315
:1004A0004B0229C080911001E8E9F1E0E4919FEF4F
:1004B00090931001E130B9F098F0E230C9F49091D6
:1004C00070009D7F9093700091E09093B0009091A8
:1004D000B100987F94609093B1001092B30008C06F
:1004E00010926E0005C090916F009D7F90936F00F9
:1004F00060E00E94D503FF91EF91BF91AF919F9172
:100500008F917F916F915F914F913F912F910F90BC
:100510000FBE0F901F9018956115710579F0FB01C2
:1005200001900020E9F73197AF01461B570BDC0122
:10053000ED91FC910280F381E02D099480E090E040
:1005400008951F920F920FB60F9211242F933F938D
:100550004F935F936F937F938F939F93AF93BF93CB
:10056000EF93FF938CE492E00E947401FF91EF916E
:10057000BF91AF919F918F917F916F915F914F91BB
:100580003F912F910F900FBE0F901F9018951F92C3
:100590000F920FB60F9211242F938F939F93EF9387
:1005A000FF93E0915C02F0915D028081E091620234
:1005B000F091630282FD12C09081809165028F5F8D
:1005C0008F7320916602821751F0E0916502F0E08E
:1005D000E45BFD4F958F8093650201C08081FF91A0
:1005E000EF919F918F912F910F900FBE0F901F90C1
:1005F00018953FB7F8948091410290914202A091E2
:100600004302B091440226B5A89B05C02F3F19F0C4
:100610000196A11DB11D3FBFBA2FA92F982F882782
:10062000820F911DA11DB11DBC01CD0142E0660FDD
:10063000771F881F991F4A95D1F7089585ED8093FC
:10064000BC008091BC0084FDFCCF1092AA010895EB
:100650004091D101262F30E0240F311D2132310588
:10066000DCF42091AA012430C9F4FC0180E090E080
:10067000861758F43091D1012191DC01A155BE4F6C
:10068000A30FB11D2C930196F3CF8091D101680F78
:100690006093D10180E0089581E0089582E008959B
:1006A000089581E090E03091AE012091AD013217C4
:1006B00010F480E090E091958195910908958091E2
:1006C000AE019091AD01891730F48F5F8093AE0138
:1006D00080E090E008958FEF9FEF08958091AD0145
:1006E00090E02091AE01821B91090895CF92DF9294
:1006F000EF92FF920F931F93CF93DF937C01262FEE
:10070000972F8A0180911A02882391F0C62FD72F44
:100710006E01C40ED51ECC15DD0571F06991D701AF
:10072000ED91FC910190F081E02DC7010995F3CF87
:10073000642F822F0E942803C801DF91CF911F915F
:100740000F91FF90EF90DF90CF900895CF93DF93BC
:100750001F92CDB7DEB7698320911A022223D1F010
:100760002091AB01203240F021E030E0FC013383E6
:10077000228380E090E015C08091AC01E82FF0E08A
:10078000E55EFD4F998190838F5F8093AC018093EC
:10079000AB0105C061E0CE0101960E94280381E013
:1007A00090E00F90DF91CF91089590E0FC01E65822
:1007B000FF4F3491FC01E954FE4F2491FC01ED55AB
:1007C000FE4FE491EE2309F43BC0332339F133307B
:1007D00091F038F43130A9F0323001F584B58F7DD5
:1007E00012C0373091F03830A1F03430B9F4809134
:1007F00080008F7D03C0809180008F778093800080
:100800000DC084B58F7784BD09C08091B0008F770B
:1008100003C08091B0008F7D8093B000F0E0EE0FB8
:10082000FF1FE257FE4FA591B4918FB7F894EC915A
:10083000611103C020952E2301C02E2B2C938FBF56
:100840000895CF93DF9390E0FC01E954FE4F24918B
:10085000FC01ED55FE4F8491882361F190E0880FF3
:10086000991FFC01E059FF4FC591D491FC01E2575B
:10087000FE4FA591B491611109C09FB7F89488818A
:10088000209582238883EC912E230BC0623061F483
:100890009FB7F8943881822F809583238883EC91C9
:1008A0002E2B2C939FBF06C08FB7F894E8812E2B78
:1008B00028838FBFDF91CF9108958F929F92AF923F
:1008C000BF92CF92DF92EF92FF926B017C010E9468
:1008D000F9024B015C01C114D104E104F104F1F00F
:1008E0000E94F902DC01CB0188199909AA09BB0908
:1008F000883E9340A105B10570F321E0C21AD108EA
:10090000E108F10888EE880E83E0981EA11CB11C56
:10091000C114D104E104F10419F7DDCFFF90EF9089
:10092000DF90CF90BF90AF909F908F9008952FB79A
:10093000F89460913D0270913E0280913F02909147
:1009400040022FBF08951F920F920FB60F921124ED
:100950002F933F938F939F93AF93BF9380913D02CB
:1009600090913E02A0913F02B091400230913C0232
:1009700023E0230F2D3720F40196A11DB11D05C0E2
:1009800026E8230F0296A11DB11D20933C028093FF
:100990003D0290933E02A0933F02B09340028091AB
:1009A000410290914202A0914302B091440201960B
:1009B000A11DB11D8093410290934202A093430276
:1009C000B0934402BF91AF919F918F913F912F912E
:1009D0000F900FBE0F901F901895FC019081018021
:1009E000F281E02DF8948181892B81832281892FE6
:1009F000809528232283A7E0B0E01197F1F72181A9
:100A000082238183A3E2B0E01197F1F7808178948B
:100A1000EFECF0E03197F1F7982381E009F480E002
:100A20000895EF92FF920F931F93CF93DF937C0172
:100A300008E010E0C0E0D1E0C7010E94ED048111A0
:100A4000CD2BDD0F01501109B9F78C2FDF91CF911C
:100A50001F910F91FF90EF900895FC01908101800C
:100A6000F281E02D892F809560FF12C0F8942281D9
:100A7000822382838181892B8183A3E2B0E0119755
:100A8000F1F78281982B9283789487ED90E011C0E2
:100A9000F8942281822382838181892B8183AFEF25
:100AA000B0E01197F1F78281982B928378948FE0D0
:100AB00090E00197F1F70895CF92DF92EF92FF92C5
:100AC0000F931F93CF93DF931F92CDB7DEB76C01C7
:100AD000E62E08E010E0FF24F39461E08F2D8E21D4
:100AE00009F460E0C60149830E942D05FF0C015006
:100AF000110949810115110581F7411115C0F894BB
:100B0000D6011196ED91FC91129791818C9180956F
:100B1000892381831196ED91FC91129792818C919A
:100B200080958923828378940F90DF91CF911F91D4
:100B30000F91FF90EF90DF90CF900895CF92DF92CA
:100B4000EF92FF920F931F93CF93DF931F92CDB736
:100B5000DEB78C01F62E40E065E579830E945C05E6
:100B6000CF2C7981D72E760188E0E80EF11CF601B2
:100B700061916F0140E0C8010E945C05CE14DF0462
:100B8000B1F70F90DF91CF911F910F91FF90EF90F0
:100B9000DF90CF900895FC0190810180F281E02DDB
:100BA000F8948181292F20958223818378948DE781
:100BB00043E050E0815021F1DA011197F1F73081E3
:100BC0003923C1F3F8948281822382838181892B26
:100BD00081837894ABE7B7E01197F1F7F8948181BE
:100BE00028232183A3E1B1E01197F1F780819823B5
:100BF00081E009F080E07894E3E6F6E03197F1F7E0
:100C00000895CF93FC01C48121E020931A02C09380
:100C10003B021092AC011092AB018385682B89EEE8
:100C200092E00E94A6038091AB01813208F046C099
:100C30009091AA019111FCCF92E09093AA0191E0CA
:100C40009093A9019FEF909319021092180280933C
:100C50001702ABE1B2E027EF31E0F9019E2F921BC2
:100C6000981718F49D919193F9CF1092F601809105
:100C7000F601CC0FC82BC093F6018091A8018130FA
:100C800061F41092A8018091F6018093BB008091DD
:100C9000BC0083FDF8CF85EC01C085EE8093BC00DD
:100CA0008091AA018230E1F3809119028F3F31F0E7
:100CB00080911902803211F0809119021092AC01DA
:100CC0001092AB0110921A02CF9108950F931F93C7
:100CD000CF938C01C62F0E9401066C2F6460C8015F
:100CE0000E9401066C2F6B7FC8010E94010683ECF5
:100CF00090E00197F1F7CF911F910F910895FF9226
:100D00000F931F93CF93DF931F92CDB7DEB78C0164
:100D1000F62E962F907F692F642BC80149830E947D
:100D2000660680E1F89EB00111244981642BC80158
:100D30000F90DF91CF911F910F91FF900C94660659
:100D400041E00E947F0681E090E008951F920F929B
:100D50000FB60F9211242F933F934F935F936F938E
:100D60007F938F939F93AF93BF93EF93FF93809164
:100D7000B900887F803609F49CC068F5883209F490
:100D80005BC090F4803109F454C038F4882309F42E
:100D9000F6C0883009F44DC0F6C0883109F44CC063
:100DA000803209F45DC0EFC0803409F468C048F4B3
:100DB000803309F455C0883309F0E5C080931902E7
:100DC000D8C0803509F44FC0883509F45DC0883437
:100DD00009F0D9C0D6C0883909F4C7C0A8F488374B
:100DE00009F467C038F4883609F463C0803709F421
:100DF00060C0C9C0883809F4B8C0803909F45FC040
:100E0000803809F0C0C05BC0803B09F486C038F46C
:100E1000803A09F466C0883A09F47FC0B4C0803CC7
:100E200009F4A7C0883C09F4A4C0883B09F48AC02F
:100E3000AAC08091F60110C090911802809117020B
:100E4000981770F5E091180281E08E0F80931802D8
:100E5000F0E0E950FE4F80818093BB0085EC86C0B6
:100E6000809319028EC0E091180281E08E0F80936A
:100E700018028091BB00F0E0E950FE4F8083909112
:100E80001802809117026EC0E091180281E08E0F67
:100E9000809318028091BB00F0E0E950FE4F808300
:100EA0008091A90181116DC081E08093A80184EA3D
:100EB00061C083E08093AA011092F501CFCF8091A9
:100EC000F501803208F051C0E091F50181E08E0F0C
:100ED0008093F5018091BB00F0E0EB52FE4F8083E0
:100EE000BDCF85EC8093BC001092AA018091F501E2
:100EF000803230F4E091F501F0E0EB52FE4F1082C9
:100F00006091F50170E0E091D301F091D40185ED9D
:100F100091E009951092F50136C084E08093AA0112
:100F20001092D2011092D101E091CF01F091D00145
:100F300009958091D101811105C081E08093D10193
:100F40001092AF01E091D20181E08E0F8093D20127
:100F5000F0E0E155FE4F80818093BB009091D2017B
:100F60008091D101981708F479CF85E88093BC006F
:100F70000AC085EC8093BC001092AA0104C01092B4
:100F800019020E941E03FF91EF91BF91AF919F91B3
:100F90008F917F916F915F914F913F912F910F9022
:100FA0000FBE0F901F9018958F929F92AF92BF9295
:100FB0000F931F93CF93DF93CDB7DEB7A1970FB6F3
:100FC000F894DEBF0FBECDBF19A2423008F44AE04C
:100FD0008E010F5D1F4F842E912CA12CB12CA501E9
:100FE00094010E94F312E62FB901CA0101501109C0
:100FF000EA3014F4E05D01C0E95CD801EC93232BE6
:10100000242B252B61F7B8018CE492E00E948C021E
:10101000A1960FB6F894DEBF0FBECDBFDF91CF9182
:101020001F910F91BF90AF909F908F9008953F9226
:101030004F925F926F927F928F929F92AF92BF92E8
:10104000CF92DF92EF92FF920F931F93CF93DF9394
:1010500000D000D0CDB7DEB720911001283021F0AC
:101060002F3F09F02CC204C0E8E9F1E0349076C0CB
:1010700028E020931001E8E9F1E0E491EF3F09F462
:101080001EC2E13011F1E23009F443C0E11165C044
:1010900014BC15BC24B5226024BD25B5216025BD36
:1010A000EBEAF1E0E491F0E0EE0FFF1FE257FE4FB4
:1010B0002591349130930F0320930E03EFEBF1E071
:1010C000E491E0930D03312C4BC0109280001092FC
:1010D000810020918100286020938100209181006F
:1010E000216020938100EBEAF1E0E491F0E0EE0F63
:1010F000FF1FE257FE4F2591349130930C0320934C
:101100000B03EFEBF1E0E491E0930A033324339413
:1011100027C01092B0001092B1002091B000226060
:101120002093B0002091B10021602093B100EBEA40
:10113000F1E0E491F0E0EE0FFF1FE257FE4F259142
:1011400034913093470220934602EFEBF1E0E491B3
:10115000E0934502B2E03B2E03C03E2E37FCAFC108
:101160002A013B018C0161E088E00E9421044801D2
:10117000A12CB12C832D8D7F09F0BBC060E072E102
:101180008AE790E0A50194010E94C91229833A835D
:101190004B835C8369017A0121E0C21AD108E1081E
:1011A000F1088FEFC816D104E104F10409F008F446
:1011B0004CC060E472E48FE090E0A50194010E94CD
:1011C000C91269017A01E1E0CE1AD108E108F108FB
:1011D000F2E03F1220C02FEFC216D104E104F10467
:1011E00009F008F46AC160E970ED83E090E0A501C0
:1011F00094010E94C91269017A0181E0C81AD108DC
:10120000E108F108EFEFCE16D104E104F10409F092
:10121000D0F583E067C0FFEFCF16D104E104F104FD
:10122000B1F0A8F068E478EE81E090E0A5019401C7
:101230000E94C91269017A0181E0C81AD108E10847
:10124000F108332009F4DFC02FC181E001C082E042
:101250003320A1F047C089819A81AB81BC812AE00B
:10126000B595A795979587952A95D1F76C017D013E
:1012700021E0C21AD108E108F10885E095B5987F10
:10128000892B85BD6FC068E478EE81E090E0A50110
:1012900094010E94C91269017A01F1E0CF1AD108C4
:1012A000E108F1082FEFC216D104E104F10409F0BE
:1012B00008F4A7C064E274EF80E090E0A501940117
:1012C0000E94C91269017A01E1E0CE1AD108E10851
:1012D000F108FFEFCF16D104E104F10411F008F09A
:1012E000B4C085E09091B100987F892B8093B100C4
:1012F00039C060E072E18AE790E0A50194010E94A4
:10130000C91269017A0181E0C81AD108E108F1081F
:10131000C114D104E1E0EE06F10488F068E478EE4F
:1013200081E090E0A50194010E94C91269017A014F
:10133000F1E0CF1AD108E108F10893E001C091E093
:1013400021E032120FC080918100887F892B809329
:101350008100411451046104710449F42FEF3FEFFF
:10136000A9012DC0411451046104710471F0D80128
:10137000AA0FBB1FA30192010E94E81228EE33E0DE
:1013800040E050E00E94F31203C02FEF3FEFA901AD
:1013900081E03816A1F0E2E03E1619F131108FC05D
:1013A000C7BC209314033093150340931603509346
:1013B000170380916E00826080936E0080C0D0928F
:1013C0008900C0928800209310033093110340934A
:1013D00012035093130380916F00826080936F001B
:1013E0006EC0C092B30020934802309349024093EC
:1013F0004A0250934B02809170008260809370008B
:101400005EC084E06FCFFFEFCF16D104E104F1049A
:10141000D1F0C8F062E17AE780E090E0A5019401A4
:101420000E94C91269017A0181E0C81AD108E10855
:10143000F108EFEFCE16D104E104F10411F008F049
:101440000ACF84E01BCF83E019CF62E17AE780E026
:1014500090E0A50194010E94C91269017A0181E01E
:10146000C81AD108E108F108EFEFCE16D104E10463
:10147000F104C1F0B8F089819A81AB81BC814AE066
:10148000B595A795979587954A95D1F76C017D01FC
:1014900021E0C21AD108E108F108332009F4EDCEA9
:1014A00087E020CF86E0D4CEFFEFCF16D104E10451
:1014B000F10409F050F684E0CBCE82E013CF0F9018
:1014C0000F900F900F90DF91CF911F910F91FF9090
:1014D000EF90DF90CF90BF90AF909F908F907F90D4
:1014E0006F905F904F903F90089540E061E08EEFE5
:1014F00092E00E947F068BE39FE10197F1F7089548
:10150000CF93DF93CDB7DEB728970FB6F894DEBF41
:101510000FBECDBF98E0E5E2F1E0DE01119601904B
:101520000D929A95E1F790910603981710F48FEFBA
:10153000890FFE013196E80FF11DE80FF11D608162
:10154000606840E08EEF92E028960FB6F894DEBF18
:101550000FBECDBFDF91CF910C947F060F931F93E9
:10156000CF938C01C62F8091F5029091F6020E94D4
:10157000CB05882389F0B8018091F5029091F6029D
:101580000E949E0540E06C2F8091F5029091F6023A
:101590000E945C0581E001C080E0CF911F910F9116
:1015A0000895CF93DF93EC018091F802811110C070
:1015B00064EBCE010E94AE0A8091F5029091F60292
:1015C0000E94110591E0811101C090E09093F90211
:1015D0008091F5029091F6020E94CB058823F1F0EC
:1015E000BE018091F5029091F6020E949E05409105
:1015F000F90281E0482764E48091F5029091F602B7
:101600000E945C050E9497046093FA027093FB02AB
:101610008093FC029093FD0281E001C080E0DF91A5
:10162000CF9108950F931F93CF93DF938C01C0E068
:10163000D0E0F801EC0FFD1F6491662371F0E0919A
:101640004C02F0914D020190F081E02D8CE492E08B
:101650000995892B11F02196ECCF67E971E08CE4B4
:1016600092E00E948C028C0F9D1FDF91CF911F9101
:101670000F9108958F929F92AF92BF92CF92DF9277
:10168000EF92FF92CF93DF936B017C019B01AC0142
:101690000E94BF12882319F06AE971E027C0460151
:1016A0005701E894B7F82FEF3FEF4FE75FE7C50129
:1016B000B4010E94BF1281110DC02FEF3FEF4FE721
:1016C0005FE7C501B4010E94671118161CF46EE9AA
:1016D00071E00CC02FEF3FEF4FE75FE4C701B601A9
:1016E0000E944D12181684F462EA71E08CE492E0D4
:1016F000DF91CF91FF90EF90DF90CF90BF90AF90B0
:101700009F908F900C948C022FEF3FEF4FE75FEC90
:10171000C701B6010E94671187FDE6CF20E030E0E7
:10172000A901C701B6010E94671187FF11C0E091AE
:101730004C02F0914D020190F081E02D6DE28CE4BD
:1017400092E00995EC01F7FAF094F7F8F09402C0F2
:10175000C0E0D0E02AE037ED43EA5BE3C701B60121
:101760000E94FB104B015C010E946C116B017C011B
:101770000E949B119B01AC01C501B4010E94FA10AB
:101780004B015C014AE0C701B6010E94D407C80FB3
:10179000D91F66EA71E08CE492E00E948C02C80FC7
:1017A000D91F20E030E040E251E4C501B4010E94BD
:1017B00052124B015C010E946C116B01E12CF12C67
:1017C0004AE0C701B6010E94D407C80FD91FC7015C
:1017D000B6010E949B119B01AC01C501B4010E949E
:1017E000FA1020E030E040E251E40E9452120E94E0
:1017F0006C1180E090E04AE00E94D4078C0F9D1F9E
:10180000DF91CF91FF90EF90DF90CF90BF90AF909E
:101810009F908F900895CF92DF92EF92FF920F9357
:101820001F93CF93DF93CDB7DEB76D970FB6F894C4
:10183000DEBF0FBECDBF6EEB0E94AE0A882309F457
:1018400060C0C090F502D090F6027E018AE1E80EF9
:10185000F11C8E010F5E1F4FC6010E941105F80199
:1018600081938F01EE15FF05B9F7DE015196E0E097
:1018700088E08A0F8A1739F09D91E927F0E0E25756
:10188000FF4FE491F7CF898DE8133BC080E1EDE293
:10189000F1E0DE01119601900D928A95E1F783E067
:1018A0008A8F82E08B8F81E08C8F1D8E0091F702F2
:1018B00010E0095011096A8970E0762F662789893E
:1018C000682BF701E00FF11F008002C07595679546
:1018D0000A94E2F7072E000C880B990B0E949D11C9
:1018E000000F111F000F111FE1E0F0E0EC0FFD1FD2
:1018F000E00FF11F20813181428153810E945212F9
:1019000004C063E373E988E893EC6D960FB6F8942E
:10191000DEBF0FBECDBFDF91CF911F910F91FF9022
:10192000EF90DF90CF900895CF93DF93CDB7DEB7E0
:1019300061970FB6F894DEBF0FBECDBF789484B523
:10194000826084BD84B5816084BD85B5826085BDBB
:1019500085B5816085BD80916E00816080936E0049
:10196000109281008091810082608093810080913B
:1019700081008160809381008091800081608093EC
:1019800080008091B10084608093B1008091B000AC
:1019900081608093B00080917A00846080937A00A7
:1019A00080917A00826080937A0080917A008160D1
:1019B00080937A0080917A00806880937A001092F8
:1019C000C100E0915C02F0915D0282E08083E091D1
:1019D0005802F09159021082E0915A02F0915B0294
:1019E0008FEC808310926402E0916002F0916102BA
:1019F00086E08083E0915E02F0915F0280818061E9
:101A00008083E0915E02F0915F0280818860808334
:101A1000E0915E02F0915F02808180688083E091B6
:101A20005E02F0915F0280818F7D80838AE08093E7
:101A3000F7020E9497046B017C018091F50290915E
:101A4000F6020E94CB0581110EC00E949704DC01B2
:101A5000CB018C199D09AE09BF09893E9340A105B0
:101A6000B10558F3E7C0E091F502F091F602138654
:101A700015861486DF011B9633961E92AE17BF079C
:101A8000E1F7B12CA12C99249394CE0101967C010D
:101A90006E0199E0C90ED11C87E0882E8E0C009152
:101AA000F5021091F602F8018585811161C0C80127
:101AB0000E94CB05811105C0F80113861586148696
:101AC000B2C040E060EFC8010E945C0566246394E8
:101AD000512C412C77247394C8010E94ED04682F87
:101AE000C801698B0E94ED046989613019F4813065
:101AF000C1F435C0252D30E068131CC0F801838582
:101B0000781630F4E20FF31F8381862151F402C06E
:101B1000781639F060E0F8E0F71558F0F8017486AF
:101B200008C0F801E50DF11D83818629838361E0FA
:101B300009C0472CF801E20FF31F9381862D809591
:101B400089238383C8010E942D057394660C19F4C0
:101B5000539466246394F7E0F51508F0BDCF20E4B4
:101B6000271530F4F8014386411095C2958693C23B
:101B7000F80113861586148680E0D8011396F701C4
:101B80009D919193EC15FD05D9F7882309F44BC07D
:101B9000D701E0E08A1639F08D91E827F0E0E257AE
:101BA000FF4FE491F7CF8885E81344C089818832DC
:101BB00009F075CF6EE4C7010E94AE0A8823D1F107
:101BC00040E060E08091F5029091F6020E945C0591
:101BD00040E060E08091F5029091F6020E945C0581
:101BE0006091F70269506295660F607E6F6140E018
:101BF0008091F5029091F6020E945C0564EBC701AA
:101C00000E94AE0A8091F5029091F6020E941105A1
:101C100091E0811101C090E09093F902911101C00F
:101C2000B394A3943CCFBA1411F0B11003C081E077
:101C30008093F80288E091E00E94D10A80E091E070
:101C40000E94D10A80E1E5E1F1E0DE011196019008
:101C50000D928A95E1F70E9497040091FA02109183
:101C6000FB022091FC023091FD02DC01CB01801BC4
:101C7000910BA20BB30B2091F702E1E0F0E0EC0F27
:101C8000FD1F34E0239FE00DF11D1124B49701E006
:101C9000C080D180E280F3808C159D05AE05BF0524
:101CA00008F400E01091F902112341F08091F5024F
:101CB0009091F6020E94ED04811101C0102F1123B2
:101CC00021F188E091E00E940B0C4B015C0180E067
:101CD00091E00E940B0C6B017C01C501B4010E94D4
:101CE0003A0B8CE690E00E94120BC701B6010E94ED
:101CF0003A0B88E690E00E94120B88E091E00E9487
:101D0000D10A80E091E00E94D10A1092AE011092B7
:101D1000AD011092AC011092AB011092AA0181E0CA
:101D20008093A9011092A80161E082E10E94D5038D
:101D300061E083E10E94D5038091B9008E7F80939A
:101D4000B9008091B9008D7F8093B90088E48093B9
:101D5000B80085E48093BC001092030380910803CF
:101D6000823018F098E0909303038093060362E3B7
:101D700070E080E090E00E945D04609109038EEFC6
:101D800092E00E94010668EE73E080E090E00E941D
:101D90005D0460E38EEF92E00E9466060BE416E4B9
:101DA000C8010197F1F760E38EEF92E00E946606AA
:101DB000C8010197F1F760E38EEF92E00E9466069A
:101DC00083E592E00197F1F760E28EEF92E00E94E6
:101DD000660660910303606240E08EEF92E00E942D
:101DE0007F0684E08093040340E06CE08EEF92E095
:101DF0000E947F060E94750A82E08093050340E0FE
:101E000066E08EEF92E00E947F0640E062E08EEF97
:101E100092E00E947F068BE39FE10197F1F788E053
:101E20008093090360E08EEF92E00E94010680E05B
:101E30000E94800A65E671E08EEF92E00E948C02BB
:101E400081E00E94800A63E771E08EEF92E00E94D9
:101E50008C0268EB7BE080E090E00E945D040E94D1
:101E6000750A6BE771E08EEF92E00E948C0281E0D0
:101E70000E94800A69E871E08EEF92E00E948C0275
:101E800060E177E280E090E00E945D040E94750AC4
:101E900061E088E00E94210444EF51E060E070E0DE
:101EA0008CED90E00E94170865EF71E080E090E013
:101EB0000E945D0444EF51E060E070E08CED90E042
:101EC0000E94170865EF71E080E090E00E945D04D9
:101ED00044EF51E060E070E08CED90E00E94170864
:101EE00065EF71E080E090E00E945D0447E751E01B
:101EF00060E070E08EEA90E00E94170868E771E009
:101F000080E090E00E945D044DE750E060E070E00A
:101F100085E091E00E9417086EE770E080E090E0B5
:101F20000E945D0444EF51E060E070E08CED90E0D1
:101F30000E94170865EF71E080E090E00E945D0468
:101F400047E751E060E070E08EEA90E00E941708F9
:101F500068E771E080E090E00E945D044DE750E0AA
:101F600060E070E085E091E00E9417086EE770E0A5
:101F700080E090E00E945D0448EE53E060E070E095
:101F80008CED90E00E94170869EE73E080E090E02D
:101F90000E945D0444EF51E060E070E089E491E06C
:101FA0000E94170865EF71E080E090E00E945D04F8
:101FB00044EF51E060E070E089E491E00E9417088E
:101FC00065EF71E080E090E00E945D0444EF51E035
:101FD00060E070E089E491E00E94170865EF71E02D
:101FE00080E090E00E945D0447E751E060E070E02F
:101FF0008DE591E00E94170868E771E080E090E0CD
:102000000E945D044DE750E060E070E085E091E003
:102010000E9417086EE770E080E090E00E945D0487
:1020200044EF51E060E070E08FEC90E00E94170810
:1020300065EF71E080E090E00E945D0447E751E0C9
:1020400060E070E08EEA90E00E94170868E771E0B7
:1020500080E090E00E945D044DE750E060E070E0B9
:1020600085E091E00E9417086EE770E080E090E064
:102070000E945D0448EE53E060E070E08CED90E07B
:102080000E94170869EE73E080E090E00E945D0412
:102090000E94FE01FDCFF8018381882309F468CDF9
:1020A00081E06BCD10924F0210924E0288EE93E0C9
:1020B000A0E0B0E08093500290935102A0935202AE
:1020C000B093530221E431E030934D0220934C024F
:1020D00025EC30E0309359022093580224EC30E094
:1020E00030935B0220935A0220EC30E030935D0283
:1020F00020935C0221EC30E030935F0220935E027B
:1021000022EC30E0309361022093600226EC30E054
:10211000309363022093620210926502109266026D
:1021200010926702109268021092EC021092EB0279
:102130008093ED029093EE02A093EF02B093F00231
:1021400081E591E09093EA028093E9021092010305
:102150001092000381E691E09093FF028093FE02CB
:1021600087E28093020384E18093070384E08093F5
:1021700008031092090360E082E00E942104E9EB69
:10218000F1E0E491E0931803E5EAF1E0E491F0E096
:10219000EE0FFF1FE756FE4F8591949190931A031F
:1021A00080931903109223031092250310922403A5
:1021B000E3E2F3E0129283E0EB31F807D9F788E12C
:1021C00093E09093F6028093F5021092F70210923A
:1021D000F8021092F9021092FA021092FB02109289
:1021E000FC021092FD020895EE0FFF1F0590F4917E
:1021F000E02D09945058BB27AA270E9412110C9475
:1022000013120E94051238F00E940C1220F039F4CB
:102210009F3F19F426F40C9402120EF4E095E7FBAC
:102220000C94FC11E92F0E94241258F3BA1762078C
:1022300073078407950720F079F4A6F50C944612ED
:102240000EF4E0950B2EBA2FA02D0B01B9019001D1
:102250000C01CA01A0011124FF27591B99F0593F15
:1022600050F4503E68F11A16F040A22F232F342F5D
:102270004427585FF3CF469537952795A795F040AB
:102280005395C9F77EF41F16BA0B620B730B840BC0
:10229000BAF09150A1F0FF0FBB1F661F771F881F78
:1022A000C2F70EC0BA0F621F731F841F48F48795D0
:1022B00077956795B795F7959E3F08F0B0CF9395C2
:1022C000880F08F09927EE0F9795879508950E943B
:1022D000D81108F481E008950E942C1288F09F57CD
:1022E00098F0B92F9927B751B0F0E1F0660F771F3A
:1022F000881F991F1AF0BA95C9F714C0B13091F030
:102300000E944612B1E008950C944612672F782F70
:102310008827B85F39F0B93FCCF3869577956795F4
:10232000B395D9F73EF490958095709561957F4F60
:102330008F4F9F4F0895E89409C097FB3EF4909506
:102340008095709561957F4F8F4F9F4F9923A9F08E
:10235000F92F96E9BB279395F6958795779567951D
:10236000B795F111F8CFFAF4BB0F11F460FF1BC061
:102370006F5F7F4F8F4F9F4F16C0882311F096E9F4
:1023800011C0772321F09EE8872F762F05C06623A2
:1023900071F096E8862F70E060E02AF09A95660F5B
:1023A000771F881FDAF7880F9695879597F9089514
:1023B000990F0008550FAA0BE0E8FEEF1616170656
:1023C000E807F907C0F012161306E407F50798F0BE
:1023D000621B730B840B950B39F40A2661F0232BD7
:1023E000242B252B21F408950A2609F4A140A69553
:1023F0008FEF811D811D089597F99F6780E870E038
:1024000060E008959FEF80EC089500240A9416166A
:10241000170618060906089500240A9412161306D2
:10242000140605060895092E0394000C11F4882360
:1024300052F0BB0F40F4BF2B11F460FF04C06F5F7C
:102440007F4F8F4F9F4F089557FD9058440F551F52
:1024500059F05F3F71F04795880F97FB991F61F026
:102460009F3F79F087950895121613061406551F9D
:10247000F2CF4695F1DF08C0161617061806991F09
:10248000F1CF86957105610508940895E894BB27FE
:1024900066277727CB0197F908950E94D81108F491
:1024A0008FEF08950E9465120C9413120E9405127A
:1024B00038F00E940C1220F0952311F00C94FC11BE
:1024C0000C94021211240C9447120E94241270F3EF
:1024D000959FC1F3950F50E0551F629FF001729FC9
:1024E000BB27F00DB11D639FAA27F00DB11DAA1FD8
:1024F000649F6627B00DA11D661F829F2227B00D25
:10250000A11D621F739FB00DA11D621F839FA00DAF
:10251000611D221F749F3327A00D611D231F849FFF
:10252000600D211D822F762F6A2F11249F57504056
:102530009AF0F1F088234AF0EE0FFF1FBB1F661FD1
:10254000771F881F91505040A9F79E3F510580F09A
:102550000C94FC110C9447125F3FE4F3983ED4F3C3
:10256000869577956795B795F795E7959F5FC1F73E
:10257000FE2B880F911D9695879597F908950E94D7
:10258000D811880B990B089581E090E0F8940C9491
:102590002413052E97FB1EF400940E94E01257FDB1
:1025A00007D00E94F31207FC03D04EF40C94E01203
:1025B00050954095309521953F4F4F4F5F4F08956F
:1025C00090958095709561957F4F8F4F9F4F08959F
:1025D0000E941513A59F900DB49F900DA49F800D90
:1025E000911D11240895A1E21A2EAA1BBB1BFD0107
:1025F0000DC0AA1FBB1FEE1FFF1FA217B307E407E2
:10260000F50720F0A21BB30BE40BF50B661F771F39
:10261000881F991F1A9469F7609570958095909519
:102620009B01AC01BD01CF010895A29FB001B39FF2
:10263000C001A39F700D811D1124911DB29F700DCB
:0C264000811D1124911D0895F894FFCF16
:10264C00283C8B030000803128CD8D03000080E8EE
:10265C00FF010000005E000000BC000000770100DC
:10266C0000EE0200000000400014005400000000C6
:10267C003F0000803E0000003E0000803D00000056
:10268C0000950111015E013C015001DC01000000CC
:10269C0000A60376036E035F035103500300000092
:1026AC0000A0061101496E69636A616C697A616305
:1026BC006A610073797374656D750050736F746E15
:1026CC00696B752054776F6A006761726E656B2059
:1026DC00676F746F7779000D0A006E616E00696E1A
:0826EC0066006F7666002E0007
:103800000C94341C0C94511C0C94511C0C94511CA1
:103810000C94511C0C94511C0C94511C0C94511C74
:103820000C94511C0C94511C0C94511C0C94511C64
:103830000C94511C0C94511C0C94511C0C94511C54
:103840000C94511C0C94511C0C94511C0C94511C44
:103850000C94511C0C94511C0C94511C0C94511C34
:103860000C94511C0C94511C11241FBECFEFD4E0BA
:10387000DEBFCDBF11E0A0E0B1E0E4EAFFE302C0AB
:1038800005900D92A230B107D9F712E0A2E0B1E0A5
:1038900001C01D92AD30B107E1F70E94361D0C94B6
:1038A000D01F0C94001C982F9595959595959595FE
:1038B000905D8F708A307CF0282F295A8091C0004B
:1038C00085FFFCCF9093C6008091C00085FFFCCFA0
:1038D0002093C6000895282F205DF0CF982F809167
:1038E000C00085FFFCCF9093C6000895EF92FF9231
:1038F0000F931F93EE24FF2487018091C00087FD62
:1039000017C00894E11CF11C011D111D81E4E8168B
:1039100082E4F8068FE0080780E0180770F3E09172
:103920000401F091050109958091C00087FFE9CF5E
:103930008091C6001F910F91FF90EF9008950E9413
:10394000761C982F8091C00085FFFCCF9093C60015
:1039500091362CF490330CF09053892F089597559D
:10396000892F08951F930E949F1C182F0E949F1C4F
:103970001295107F810F1F910895882351F0982F81
:1039800091508091C00087FFFCCF8091C6009923A1
:10399000B9F708951F93182F0E94761C803249F0C2
:1039A000809103018F5F809303018530C1F01F91E7
:1039B00008958091C00085FFFCCF84E18093C6000C
:1039C0008091C00085FFFCCF1093C6008091C0009D
:1039D00085FFFCCF80E18093C6001F910895E091A0
:1039E0000401F091050109951F9108950E94761C2C
:1039F000803241F0809103018F5F80930301853015
:103A000081F008958091C00085FFFCCF84E1809310
:103A1000C6008091C00085FFFCCF80E18093C60086
:103A20000895E0910401F09105010995089510921F
:103A30000A028823D1F090E040E951E02D9A28EE67
:103A400033E0FA013197F1F721503040D1F72D984A
:103A500028EE33E0FA013197F1F721503040D1F7E9
:103A60009F5F981758F380930A0208953F924F92F0
:103A70005F926F927F928F929F92AF92BF92CF92FE
:103A8000DF92EF92FF920F931F93CF93DF9300008B
:103A900083E38093C4001092C50088E18093C10045
:103AA00086E08093C2005098589A259A81E00E943F
:103AB000171D44E1F42E3EE1E32E24E9D22E96E0D8
:103AC000C92E80E1B82EAA24A39401E4902E16E515
:103AD000812EB2E57B2EA0E26A2EF9E45F2EE3E5AB
:103AE0004E2E70E5372E0E94761C8033B1F1813363
:103AF00009F441C0803409F479C0813409F48CC0E0
:103B0000823471F1853409F47BC0803531F182351E
:103B100021F1813511F1853509F48DC0863509F41F
:103B20009DC0843609F4AEC0843709F41BC18537C3
:103B300009F485C1863709F47AC0809103018F5F4B
:103B400080930301853079F6E0910401F09105013D
:103B500009950E94761C803351F60E94F61CC3CF53
:103B600093E18091C00087FFFCCF8091C60099232C
:103B7000A1F39150F6CF0E94761C8032F1F680912D
:103B8000C00085FFFCCFF092C6008091C00085FF89
:103B9000FCCF9092C6008091C00085FFFCCF809240
:103BA000C6008091C00085FFFCCF7092C600809156
:103BB000C00085FFFCCF6092C6008091C00085FFE9
:103BC000FCCF5092C6008091C00085FFFCCF409290
:103BD000C6008091C00085FFFCCF3092C600809166
:103BE000C00085FFFCCFB092C6007DCF0E94761C3E
:103BF000863808F4B2CF0E94761C0E94F61C73CF60
:103C000094E08091C00087FFFCCF8091C60099238B
:103C100009F4A3CF9150F5CF0E94761C8038D1F0E3
:103C2000813861F1823809F499C0883979F080E0EF
:103C30000E94CA1C58CF0E94761C809306010E94E5
:103C4000761C809307010E94F61C4DCF83E00E94F2
:103C5000CA1C49CF82E00E94CA1C45CF0E94761C34
:103C6000803309F486C192E08091C00087FFFCCFC9
:103C70008091C6009923D9F29150F6CF81E00E943D
:103C8000CA1C31CF0E94761C809309020E94761CC8
:103C90008093080280910C028E7F80930C020E9418
:103CA000761C853429F480910C02816080930C028B
:103CB0008091080290910902892B89F000E010E0C0
:103CC0000E94761CF801E85FFE4F80830F5F1F4F54
:103CD00080910802909109020817190788F30E9441
:103CE000761C803209F029CF80910C0280FFD1C070
:103CF0004091060150910701440F551F5093070151
:103D000040930601A0910802B09109021097C9F0F2
:103D1000E8E0F1E09A01BD016E0F7F1FF999FECF37
:103D200032BD21BD819180BDFA9AF99A2F5F3F4F34
:103D3000E617F70799F74A0F5B1F50930701409367
:103D400006018091C00085FFFCCFF092C6008091F3
:103D5000C00085FFFCCFB092C600C5CE80E10E94B6
:103D6000CA1CC1CE0E94761C809309020E94761C58
:103D7000809308028091060190910701880F991F96
:103D800090930701809306010E94761C853409F404
:103D90007AC080910C028E7F80930C020E94761C68
:103DA000803209F0A0CE8091C00085FFFCCFF09258
:103DB000C600A0910802B09109021097B9F1809154
:103DC0000C02182F1170082F0270E0910601F0917B
:103DD00007019F012F5F3F4FB90140E050E01123E1
:103DE000B1F4002339F494918091C00085FFFCCF99
:103DF0009093C6004F5F5F4FCB010196F9014A17C0
:103E00005B0780F4BC012F5F3F4F112351F3F999F9
:103E1000FECFF2BDE1BDF89A90B58091C00085FF5C
:103E2000FCCFE6CF70930701609306018091C0003C
:103E300085FDD9CE8091C00085FFF8CFD4CE0E94F9
:103E4000761C803209F079CE8091C00085FFFCCFCE
:103E5000F092C6008091C00085FFFCCFE092C600C2
:103E60008091C00085FFFCCFD092C6008091C00039
:103E700085FFFCCFC092C6008091C00085FFFCCFBB
:103E8000B092C60030CE80910C02816080930C020B
:103E900085CF809107018823880F880B8A21809322
:103EA0000B028091060190910701880F991F909352
:103EB0000701809306018091080280FF09C080916C
:103EC00008029091090201969093090280930802DA
:103ED000F894F999FECF1127E0910601F0910701BE
:103EE000C8E0D1E08091080290910902103091F46D
:103EF0000091570001700130D9F303E0009357009F
:103F0000E8950091570001700130D9F301E1009369
:103F10005700E89509901990009157000170013001
:103F2000D9F301E000935700E8951395103498F009
:103F300011270091570001700130D9F305E000937B
:103F40005700E8950091570001700130D9F301E165
:103F500000935700E8953296029709F0C7CF1030CA
:103F600011F00296E5CF11248091C00085FFE9CEC3
:103F7000ECCE0E94761C0E94761C182F0E94761CA4
:103F8000112351F0113021F086E00E94CA1CABCD04
:103F900084E90E94CA1CA7CD8EE10E94CA1CA3CD51
:043FA000F894FFCFC3
:023FA40080009B
:0400000300003800C1
:00000001FF
