:100000000C94E4000C940C010C940C010C940C0165
:100010000C940C010C940C010C940C010C940C012C
:100020000C940C010C940C010C940C010C940C011C
:100030000C940C010C940C010C940C010C940C010C
:100040000C9496030C940C010C947C020C945602B4
:100050000C940C010C940C010C940C010C940C01EC
:100060000C9499050C940C01005EBCE2613FDD83A9
:10007000C29C7E20A3FD1F419DC3217FFCA2401E88
:100080005F01E3BD3E6082DC237D9FC1421CFEA078
:10009000E1BF5D0380DE3C62BEE0025CDF81633D68
:1000A0007C22C09E1D43A1FF4618FAA427799BC558
:1000B00084DA3866E5BB5907DB856739BAE4065848
:1000C0001947A5FB7826C49A653BD987045AB8E638
:1000D000A7F91B45C6987A24F8A6441A99C7257B28
:1000E0003A6486D85B05E7B98CD2306EEDB3510F18
:1000F0004E10F2AC2F7193CD114FADF3702ECC9208
:10010000D38D6F31B2EC0E50AFF1134DCE90722CF7
:100110006D33D18F0C52B0EE326C8ED0530DEFB1E7
:10012000F0AE4C1291CF2D73CA947628ABF51749D7
:100130000856B4EA6937D58B5709EBB536688AD4C7
:1001400095CB2977F4AA4816E9B7550B88D6346AB7
:100150002B7597C94A14F6A8742AC896154BA9F7A7
:10016000B6E80A54D7896B35202743000000000801
:10017000000201000003040700000000000000006E
:1001800000000000250028002B00000000002400D3
:1001900027002A0000000000230026002900040494
:1001A000040404040404020202020202030303031F
:1001B00003030102040810204080010204081020FB
:1001C000010204081020A40B11241FBECFEFD4E0BD
:1001D000DEBFCDBF22E0AEE8B1E001C01D92A73F77
:1001E000B207E1F711E0A0E0B1E0EEEBFCE102C004
:1001F00005900D92AE38B107D9F710E0C4EED0E00B
:1002000004C02197FE010E94660CC33ED107C9F7C6
:100210000E94A1070C945D0E0C940000CF92DF9217
:10022000EF92FF920F931F93CF93DF936C017A01AC
:100230008B01C0E0D0E0CE15DF0589F0D8016D91CB
:100240008D01D601ED91FC910190F081E02DC60168
:100250000995892B11F47E0102C02196ECCFC701CC
:10026000DF91CF911F910F91FF90EF90DF90CF9092
:100270000895FC01918D828D981761F0828DDF01C8
:10028000A80FB11D5D968C91928D9F5F9F73928F89
:1002900090E008958FEF9FEF0895FC01918D828D7E
:1002A000981731F0828DE80FF11D858D90E008954B
:1002B0008FEF9FEF0895FC01918D228D892F90E0A3
:1002C000805C9F4F821B91098F73992708958BE261
:1002D00092E00E945B0121E0892B09F420E0822F4B
:1002E0000895FC01848DDF01A80FB11DA35ABF4FF3
:1002F0002C91848D90E001968F739927848FA68925
:10030000B7892C93A089B1898C9180648C93938D4B
:10031000848D981306C00288F389E02D80818F7D3B
:1003200080830895EF92FF920F931F93CF93DF93F3
:10033000EC0181E0888F9B8D8C8D981305C0E88936
:10034000F989808185FD24C0F62E0B8D10E00F5FAA
:100350001F4F0F731127E02E8C8DE8120CC00FB6C3
:1003600007FCFACFE889F989808185FFF5CFCE01B6
:100370000E947101F1CF8B8DFE01E80FF11DE35A50
:10038000FF4FF0820B8FEA89FB898081806207C072
:10039000EE89FF896083E889F989808180648083A0
:1003A00081E090E0DF91CF911F910F91FF90EF904E
:1003B0000895CF93DF93EC01888D8823C9F0EA89F3
:1003C000FB89808185FD05C0A889B9898C9186FD4E
:1003D0000FC00FB607FCF5CF808185FFF2CFA8894B
:1003E000B9898C9185FFEDCFCE010E947101E7CFD5
:1003F000DF91CF91089580E090E0892B29F00E9451
:10040000670181110C94000008950E94360E8F92AE
:100410009F92AF92BF92CF92DF92EF92FF926B01C9
:100420007C010E9465034B015C01C114D104E1040D
:10043000F104F1F00E946503DC01CB0188199909F0
:10044000AA09BB09883E9340A105B10570F321E0DC
:10045000C21AD108E108F10888EE880E83E0981EE0
:10046000A11CB11CC114D104E104F10419F7DDCFC2
:10047000FF90EF90DF90CF90BF90AF909F908F90C4
:1004800008956115710579F0FB0101900020E9F7ED
:100490003197AF01461B570BDC01ED91FC910280B7
:1004A000F381E02D099480E090E008951F920F926F
:1004B0000FB60F9211242F933F934F935F936F9337
:1004C0007F938F939F93AF93BF93EF93FF938BE2B1
:1004D00092E00E947101FF91EF91BF91AF919F91C6
:1004E0008F917F916F915F914F913F912F910F90DD
:1004F0000FBE0F901F9018951F920F920FB60F927C
:1005000011242F938F939F93EF93FF93E0913B02DE
:10051000F0913C028081E0914102F091420282FD23
:1005200012C09081809144028F5F8F7320914502A9
:10053000821751F0E0914402F0E0E55DFD4F958FA8
:100540008093440201C08081FF91EF919F918F9130
:100550002F910F900FBE0F901F90189585ED8093EF
:10056000BC008091BC0084FDFCCF109290010895E6
:100570004091B701262F30E0240F311D2132310583
:10058000DCF4209190012430C9F4FC0180E090E07B
:10059000861758F43091B7012191DC01AB56BE4F5C
:1005A000A30FB11D2C930196F3CF8091B701680F73
:1005B0006093B70180E0089581E0089582E0089596
:1005C000089581E090E030919401209193013217D9
:1005D00010F480E090E091958195910908958091C3
:1005E000940190919301891730F48F5F8093940167
:1005F00080E090E008958FEF9FEF08958091930140
:1006000090E020919401821B91090895CF92DF928E
:10061000EF92FF920F931F93CF93DF937C01262FCE
:10062000972F8A0180910002882391F0C62FD72F3F
:100630006E01C40ED51ECC15DD0571F06991D70190
:10064000ED91FC910190F081E02DC7010995F3CF68
:10065000642F822F0E94B802C801DF91CF911F91B1
:100660000F91FF90EF90DF90CF900895CF93DF939D
:100670001F92CDB7DEB76983209100022223D1F00B
:1006800020919101203240F021E030E0FC013383E1
:10069000228380E090E015C080919201E82FF0E085
:1006A000EF5FFD4F998190838F5F809392018093DC
:1006B000910105C061E0CE0101960E94B80281E07F
:1006C00090E00F90DF91CF9108953FB7F89480911B
:1006D000270290912802A0912902B0912A0226B502
:1006E000A89B05C02F3F19F00196A11DB11D3FBF6A
:1006F000BA2FA92F982F8827820F911DA11DB11DF8
:10070000BC01CD0142E0660F771F881F991F4A95F3
:10071000D1F708952FB7F8946091230270912402C5
:1007200080912502909126022FBF08951F920F926B
:100730000FB60F9211242F933F938F939F93AF93F4
:10074000BF938091230290912402A0912502B09141
:1007500026023091220223E0230F2D3720F4019648
:10076000A11DB11D05C026E8230F0296A11DB11DD4
:10077000209322028093230290932402A0932502C7
:10078000B09326028091270290912802A09129021D
:10079000B0912A020196A11DB11D8093270290936A
:1007A0002802A0932902B0932A02BF91AF919F9192
:1007B0008F913F912F910F900FBE0F901F90189522
:1007C000FC0190810180F281E02DF8948181892BD8
:1007D00081832281892F809528232283A7E0B0E09E
:1007E0001197F1F7218182238183A3E2B0E0119771
:1007F000F1F780817894EFECF0E03197F1F79823EE
:1008000081E009F480E00895EF92FF920F931F9327
:10081000CF93DF937C0108E010E0C0E0D1E0C70196
:100820000E94E0038111CD2BDD0F01501109B9F7B2
:100830008C2FDF91CF911F910F91FF90EF90089532
:10084000FC0190810180F281E02D892F809560FF6D
:1008500012C0F8942281822382838181892B818333
:10086000A3E2B0E01197F1F78281982B92837894FC
:1008700087ED90E011C0F8942281822382838181E8
:10088000892B8183AFEFB0E01197F1F78281982B2C
:10089000928378948FE090E00197F1F70895CF92DA
:1008A000DF92EF92FF920F931F93CF93DF931F92EC
:1008B000CDB7DEB76C01E62E08E010E0FF24F3941C
:1008C00061E08F2D8E2109F460E0C60149830E940A
:1008D0002004FF0C0150110949810115110581F710
:1008E000411115C0F894D6011196ED91FC91129723
:1008F00091818C918095892381831196ED91FC9152
:10090000129792818C9180958923828378940F909D
:10091000DF91CF911F910F91FF90EF90DF90CF90DB
:100920000895CF92DF92EF92FF920F931F93CF9390
:10093000DF931F92CDB7DEB78C01F62E40E065E560
:1009400079830E944F04CF2C7981D72E760188E0DD
:10095000E80EF11CF60161916F0140E0C8010E94B0
:100960004F04CE14DF04B1F70F90DF91CF911F91A8
:100970000F91FF90EF90DF90CF900895FC01908150
:100980000180F281E02DF8948181292F2095822326
:10099000818378948DE743E050E0815021F1DA01C2
:1009A0001197F1F730813923C1F3F89482818223C2
:1009B00082838181892B81837894ABE7B7E011979B
:1009C000F1F7F894818128232183A3E1B1E0119705
:1009D000F1F78081982381E009F080E07894E3E6E4
:1009E000F6E03197F1F70895CF93FC01C48121E03F
:1009F00020930002C0932102109292011092910163
:100A00008385682B88EC92E00E94360380919101E7
:100A1000813208F046C0909190019111FCCF92E094
:100A20009093900191E090938F019FEF9093FF013D
:100A30001092FE018093FD01A1E0B2E02DED31E0C6
:100A4000F9019E2F921B981718F49D919193F9CF5D
:100A50001092DC018091DC01CC0FC82BC093DC012B
:100A600080918E01813061F410928E018091DC01C1
:100A70008093BB008091BC0083FDF8CF85EC01C062
:100A800085EE8093BC00809190018230E1F38091EB
:100A9000FF018F3F31F08091FF01803211F0809192
:100AA000FF01109292011092910110920002CF91D9
:100AB00008950F931F93CF938C01C62F0E94F404C7
:100AC0006C2F6460C8010E94F4046C2F6B7FC80116
:100AD0000E94F40483EC90E00197F1F7CF911F910D
:100AE0000F910895FF920F931F93CF93DF931F925F
:100AF000CDB7DEB78C01F62E962F907F692F642B31
:100B0000C80149830E94590580E1F89EB001112473
:100B10004981642BC8010F90DF91CF911F910F91F4
:100B2000FF900C94590541E00E94720581E090E02D
:100B300008951F920F920FB60F9211242F933F9397
:100B40004F935F936F937F938F939F93AF93BF93D5
:100B5000EF93FF938091B900887F803609F49CC0A1
:100B600068F5883209F45BC090F4803109F454C010
:100B700038F4882309F4F6C0883009F44DC0F6C073
:100B8000883109F44CC0803209F45DC0EFC0803474
:100B900009F468C048F4803309F455C0883309F07B
:100BA000E5C08093FF01D8C0803509F44FC0883577
:100BB00009F45DC0883409F0D9C0D6C0883909F479
:100BC000C7C0A8F4883709F467C038F4883609F438
:100BD00063C0803709F460C0C9C0883809F4B8C060
:100BE000803909F45FC0803809F0C0C05BC0803B29
:100BF00009F486C038F4803A09F466C0883A09F4EA
:100C00007FC0B4C0803C09F4A7C0883C09F4A4C0EC
:100C1000883B09F48AC0AAC08091DC0110C0909181
:100C2000FE018091FD01981770F5E091FE0181E0D1
:100C30008E0F8093FE01F0E0E352FE4F808180939F
:100C4000BB0085EC86C08093FF018EC0E091FE0161
:100C500081E08E0F8093FE018091BB00F0E0E352B3
:100C6000FE4F80839091FE018091FD016EC0E09166
:100C7000FE0181E08E0F8093FE018091BB00F0E0C9
:100C8000E352FE4F808380918F0181116DC081E01E
:100C900080938E0184EA61C083E08093900110927A
:100CA000DB01CFCF8091DB01803208F051C0E091B1
:100CB000DB0181E08E0F8093DB018091BB00F0E0CF
:100CC000E554FE4F8083BDCF85EC8093BC0010922D
:100CD00090018091DB01803230F4E091DB01F0E0A3
:100CE000E554FE4F10826091DB0170E0E091B901A4
:100CF000F091BA018BEB91E009951092DB0136C0BF
:100D000084E0809390011092B8011092B701E091B5
:100D1000B501F091B60109958091B701811105C027
:100D200081E08093B70110929501E091B80181E0D4
:100D30008E0F8093B801F0E0EB56FE4F80818093D8
:100D4000BB009091B8018091B701981708F479CF52
:100D500085E88093BC000AC085EC8093BC001092AB
:100D6000900104C01092FF010E94AE02FF91EF912A
:100D7000BF91AF919F918F917F916F915F914F91B3
:100D80003F912F910F900FBE0F901F901895CF930A
:100D9000DF93CDB7DEB728970FB6F894DEBF0FBE4E
:100DA000CDBF98E0ECE2F1E0DE01119601900D92EA
:100DB0009A95E1F79091E502981710F48FEF890F5B
:100DC000FE013196E80FF11DE80FF11D60816068AA
:100DD00040E08DED92E028960FB6F894DEBF0FBE8E
:100DE000CDBFDF91CF910C94720590E0FC01E459E6
:100DF000FE4F2491FC01EE54FE4F3491FC01E2566B
:100E0000FE4FE491EE23B1F1222339F1233091F02A
:100E100038F42130A9F0223001F584B58F7D12C05D
:100E2000273091F02830A1F02430B9F4809180006F
:100E30008F7D03C0809180008F77809380000DC0EC
:100E400084B58F7784BD09C08091B0008F7703C0CF
:100E50008091B0008F7D8093B000F0E0EE0FFF1F17
:100E6000E058FE4FA591B4918FB7F894EC913E2BCA
:100E70003C938FBF08950F931F93CF938C01C62F80
:100E80008091D4029091D5020E94BE04882389F0FB
:100E9000B8018091D4029091D5020E94910440E063
:100EA0006C2F8091D4029091D5020E944F0481E072
:100EB00001C080E0CF911F910F9108958F929F9272
:100EC000AF92BF920F931F93CF93DF93CDB7DEB74F
:100ED000A1970FB6F894DEBF0FBECDBF19A2423066
:100EE00008F44AE08E010F5D1F4F842E912CA12C37
:100EF000B12CA50194010E943B0EE62FB901CA0155
:100F000001501109EA3014F4E05D01C0E95CD80138
:100F1000EC93232B242B252B61F7B8018BE292E075
:100F20000E944102A1960FB6F894DEBF0FBECDBF5E
:100F3000DF91CF911F910F91BF90AF909F908F90B5
:100F40000895CF93DF93CDB7DEB76E970FB6F894C1
:100F5000DEBF0FBECDBF789484B5826084BD84B5FA
:100F6000816084BD85B5826085BD85B5816085BDA4
:100F700080916E00816080936E001092810080915C
:100F800081008260809381008091810081608093E4
:100F90008100809180008160809380008091B10009
:100FA00084608093B1008091B00081608093B00034
:100FB00080917A00846080937A0080917A008260C8
:100FC00080937A0080917A00816080937A0080918A
:100FD0007A00806880937A001092C100E0913B0211
:100FE000F0913C0282E08083E0913702F091380278
:100FF0001082E0913902F0913A028FEC80831092D6
:101000004302E0913F02F091400286E08083E0914C
:101010003D02F0913E02808180618083E0913D023B
:10102000F0913E02808188608083E0913D02F091E2
:101030003E02808180688083E0913D02F0913E0213
:1010400080818F7D80838CE08093D6020E948A030A
:101050006B017C018091D4029091D5020E94BE0464
:1010600081110EC00E948A03DC01CB018C199D09FD
:10107000AE09BF09893E9340A105B10558F3E7C009
:10108000E091D402F091D502138615861486DF0113
:101090001B9633961E92AE17BF07E1F7B12CA12C19
:1010A00099249394CE0101967C016E0199E0C90EBA
:1010B000D11C77E0872E8E0C0091D4021091D502BE
:1010C000F8018585811161C0C8010E94BE048111AB
:1010D00005C0F801138615861486B2C040E060EFA3
:1010E000C8010E944F0466246394512C412C77243C
:1010F0007394C8010E94E003682FC8016E8F0E949C
:10110000E0036E8D613019F48130C1F435C0252DB6
:1011100030E068131CC0F8018385781630F4E20FC4
:10112000F31F8381862151F402C0781639F060E004
:10113000F8E0F71558F0F801748608C0F801E50DDD
:10114000F11D83818629838361E009C0472CF80162
:10115000E20FF31F9381862D809589238383C80135
:101160000E9420047394660C19F4539466246394CB
:10117000F7E0F51508F0BDCF20E4271530F4F801AD
:1011800043864110DAC29586D8C2F80113861586C7
:10119000148680E0D8011396F7019D919193EC1588
:1011A000FD05D9F7882309F44BC0D701E0E08A1682
:1011B00039F08D91E827F0E0E859FF4FE491F7CF3F
:1011C0008885E81344C08981883209F075CF6EE4C0
:1011D000C7010E943B078823D1F140E060E0809185
:1011E000D4029091D5020E944F0440E060E08091CB
:1011F000D4029091D5020E944F046091D6026950AA
:101200006295660F607E6F6140E08091D40290919C
:10121000D5020E944F0464EBC7010E943B078091F6
:10122000D4029091D5020E94040491E0811101C082
:1012300090E09093D802911101C0B394A3943CCF55
:10124000BA1411F0B11003C081E08093D70210925C
:1012500094011092930110929201109291011092B8
:10126000900181E080938F0110928E0182E10E94B3
:10127000F50683E10E94F5068091B9008E7F809388
:10128000B9008091B9008D7F8093B90088E4809384
:10129000B80085E48093BC001092E2028091E702DE
:1012A000823018F098E09093E2028093E50262E3C6
:1012B00070E080E090E00E9407026091E8028DED0E
:1012C00092E00E94F40468EE73E080E090E00E94F7
:1012D000070260E38DED92E00E9459050BE416E4ED
:1012E000C8010197F1F760E38DED92E00E94590586
:1012F000C8010197F1F760E38DED92E00E94590576
:1013000083E592E00197F1F760E28DED92E00E94B3
:1013100059056091E202606240E08DED92E00E942A
:10132000720584E08093E30240E06CE08DED92E092
:101330000E94720540E061E08DED92E00E9472052E
:101340000BE31FE1C8010197F1F782E08093E4020B
:1013500040E066E08DED92E00E94720540E062E0C0
:101360008DED92E00E947205C8010197F1F788E0C7
:101370008093E80260E08DED92E00E94F40480E04A
:101380000E94C7066CE571E08DED92E00E9441027B
:1013900081E00E94C7066FE671E08DED92E00E9449
:1013A000410240E061E08DED92E00E947205C801CB
:1013B0000197F1F76624639450E1B52EAA24A39413
:1013C0008E010F5E1F4F4E01FAE18F0E911C68E0F7
:1013D000762E700E8091D702811111C064EB80E0EF
:1013E00091E00E943B078091D4029091D5020E9427
:1013F000040491E0811101C090E09093D8028091A3
:10140000D4029091D5020E94BE048823E1F060E0EE
:1014100071E08091D4029091D5020E949104409194
:10142000D802462564E48091D4029091D5020E94AE
:101430004F040E948A036093D9027093DA0280936A
:10144000DB029093DC02ECE0F1E0DE0111968B2DE3
:1014500001900D928A95E1F70E948A03C090D9020B
:10146000D090DA02E090DB02F090DC02DC01CB01EC
:101470008C199D09AE09BF092091D602E1E0F0E088
:10148000EC0FFD1F34E0239FE00DF11D1124B497F4
:10149000EE24E394208131814281538182179307A6
:1014A000A407B50708F4E12CF090D802FF2041F022
:1014B0008091D4029091D5020E94E003811101C075
:1014C000FE2CFF2009F4BFCF6EEB80E091E00E947C
:1014D0003B07882309F46CC0C090D402D090D50299
:1014E0007801C6010E940404F70181937F01E81589
:1014F000F905B9F7D801E0E07A1639F08D91E827BF
:10150000F0E0E859FF4FE491F7CF898DE8133DC033
:10151000ECE1F1E0DE0111968B2D01900D928A95A0
:10152000E1F783E08A8F82E08B8FAC8E1D8EE09096
:10153000D602F12CF9E0EF1AF1086A8970E0762FF3
:1015400066278989682BF401EE0DFF1D008002C01B
:10155000759567950A94E2F7072E000C880B990B96
:101560000E940F0DEE0CFF1CEE0CFF1CE1E0F0E002
:10157000EC0FFD1FEE0DFF1D208131814281538153
:101580000E94C40D6B017C0108C023E3C22E23E935
:10159000D22E28E8E22E23ECF22EA7019601C701F5
:1015A000B6010E94310E882359F06DE771E02FC01B
:1015B00093E3C92E93E9D92E98E8E92E93ECF92EFE
:1015C00016012701E89457F82FEF3FEF4FE75FE749
:1015D000C201B1010E94310E81110DC02FEF3FEF0A
:1015E0004FE75FE7C201B1010E94D90C18161CF445
:1015F00061E871E00CC02FEF3FEF4FE75FE4C701F8
:10160000B6010E94BF0D18165CF465E871E08BE22C
:1016100092E00E94410288E6E82E81E0F82E80C028
:101620002FEF3FEF4FE75FECC701B6010E94D90CE7
:1016300087FDEBCF20E030E0A901C701B6010E9491
:10164000D90C87FF0FC0E0912B02F0912C02019082
:10165000F081E02D6DE28BE292E00995F7FAF094CB
:10166000F7F8F0942AE037ED43EA5BE3C701B601EF
:101670000E946D0C1B012C010E94DE0C6B017C0191
:101680000E940D0D9B01AC01C201B1010E946C0CC6
:101690001B012C014AE0C701B6010E945E0769E800
:1016A00071E08BE292E00E94410220E030E040E2F3
:1016B00051E4C201B1010E94C40D6B017C010E9482
:1016C000DE0C1B01412C512C4AE0C201B1010E94E9
:1016D0005E07C201B1010E940D0D9B01AC01C70163
:1016E000B6010E946C0C20E030E040E251E40E9420
:1016F000C40D0E94DE0C80E090E04AE00E945E078C
:101700008ACFE0912B02F0912C020190F081E02D24
:101710008BE292E00995FFEFEF1AFF0A892B21F087
:10172000F70164916111EDCF6BE871E08BE292E01B
:101730000E9441020E94FB014DCEF8018381882363
:1017400009F423CD81E026CDCF93DF9310922E02B2
:1017500010922D0288EE93E0A0E0B0E080932F027B
:1017600090933002A0933102B093320228E331E02B
:1017700030932C0220932B0225EC30E0309338027A
:101780002093370224EC30E030933A022093390260
:1017900020EC30E030933C0220933B0221EC30E01F
:1017A00030933E0220933D0222EC30E03093400221
:1017B00020933F0226EC30E0309342022093410216
:1017C0001092440210924502109246021092470273
:1017D0001092CB021092CA028093CC029093CD0259
:1017E000A093CE02B093CF0288E491E09093C90217
:1017F0008093C8021092E0021092DF0288E591E027
:101800009093DE028093DD0287E28093E10284E11F
:101810008093E60284E08093E7021092E802E4EB12
:10182000F1E02491E0EAF1E084918823C1F090E0B6
:10183000880F991FFC01E657FE4FC591D491FC011A
:10184000E058FE4FA591B4919FB7F8948881E22F9C
:10185000E0958E2388838C91E823EC939FBFE4EB83
:10186000F1E0E491E093E902E0EAF1E0E491F0E0F4
:10187000EE0FFF1FEC56FE4F859194919093EB0273
:101880008093EA021092F4021092F6021092F5028E
:10189000E4EFF2E0129282E0EC3EF807D9F789EE2D
:1018A00092E09093D5028093D4021092D6021092C7
:1018B000D7021092D8021092D9021092DA02109236
:1018C000DB021092DC02DF91CF910895EE0FFF1F33
:1018D0000590F491E02D09945058BB27AA270E9447
:1018E000840C0C94850D0E94770D38F00E947E0DBB
:1018F00020F039F49F3F19F426F40C94740D0EF483
:10190000E095E7FB0C946E0DE92F0E94960D58F3BD
:10191000BA17620773078407950720F079F4A6F5D4
:101920000C94B80D0EF4E0950B2EBA2FA02D0B01E0
:10193000B90190010C01CA01A0011124FF27591B14
:1019400099F0593F50F4503E68F11A16F040A22F1A
:10195000232F342F4427585FF3CF4695379527958B
:10196000A795F0405395C9F77EF41F16BA0B620B8A
:10197000730B840BBAF09150A1F0FF0FBB1F661FD1
:10198000771F881FC2F70EC0BA0F621F731F841F14
:1019900048F4879577956795B795F7959E3F08F03A
:1019A000B0CF9395880F08F09927EE0F97958795FC
:1019B00008950E944A0D08F481E008950E949E0D4A
:1019C00088F09F5798F0B92F9927B751B0F0E1F000
:1019D000660F771F881F991F1AF0BA95C9F714C0B0
:1019E000B13091F00E94B80DB1E008950C94B80D9B
:1019F000672F782F8827B85F39F0B93FCCF38695E9
:101A000077956795B395D9F73EF490958095709545
:101A100061957F4F8F4F9F4F0895E89409C097FBC2
:101A20003EF490958095709561957F4F8F4F9F4FB5
:101A30009923A9F0F92F96E9BB279395F6958795F9
:101A400077956795B795F111F8CFFAF4BB0F11F4BC
:101A500060FF1BC06F5F7F4F8F4F9F4F16C0882363
:101A600011F096E911C0772321F09EE8872F762F99
:101A700005C0662371F096E8862F70E060E02AF0DA
:101A80009A95660F771F881FDAF7880F96958795C6
:101A900097F90895990F0008550FAA0BE0E8FEEF9B
:101AA00016161706E807F907C0F012161306E40722
:101AB000F50798F0621B730B840B950B39F40A261B
:101AC00061F0232B242B252B21F408950A2609F4F9
:101AD000A140A6958FEF811D811D089597F99F67FD
:101AE00080E870E060E008959FEF80EC08950024A6
:101AF0000A941616170618060906089500240A9473
:101B000012161306140605060895092E0394000CF8
:101B100011F4882352F0BB0F40F4BF2B11F460FF87
:101B200004C06F5F7F4F8F4F9F4F089557FD9058B0
:101B3000440F551F59F05F3F71F04795880F97FB91
:101B4000991F61F09F3F79F087950895121613064B
:101B50001406551FF2CF4695F1DF08C0161617067A
:101B60001806991FF1CF86957105610508940895AF
:101B7000E894BB2766277727CB0197F908950E9441
:101B80004A0D08F48FEF08950E94D70D0C94850D2F
:101B90000E94770D38F00E947E0D20F0952311F001
:101BA0000C946E0D0C94740D11240C94B90D0E94BC
:101BB000960D70F3959FC1F3950F50E0551F629FEE
:101BC000F001729FBB27F00DB11D639FAA27F00D96
:101BD000B11DAA1F649F6627B00DA11D661F829FBD
:101BE0002227B00DA11D621F739FB00DA11D621FA2
:101BF000839FA00D611D221F749F3327A00D611DBF
:101C0000231F849F600D211D822F762F6A2F1124A0
:101C10009F5750409AF0F1F088234AF0EE0FFF1FD3
:101C2000BB1F661F771F881F91505040A9F79E3F2A
:101C3000510580F00C946E0D0C94B90D5F3FE4F3E8
:101C4000983ED4F3869577956795B795F795E79580
:101C50009F5FC1F7FE2B880F911D9695879597F989
:101C600008950E944A0D880B990B089581E090E039
:101C7000F8940C945D0EA1E21A2EAA1BBB1BFD0169
:101C80000DC0AA1FBB1FEE1FFF1FA217B307E4075B
:101C9000F50720F0A21BB30BE40BF50B661F771FB3
:101CA000881F991F1A9469F7609570958095909593
:0E1CB0009B01AC01BD01CF010895F894FFCF58
:101CBE0028CD8D03000080E8010000005E000000CA
:101CCE00BC00000077010000EE0200000000003FA3
:101CDE000000803E0000003E0000803D00004000FD
:101CEE00140054000000000092010E015B01390146
:101CFE004D01D9010000000036030603FE02EF027B
:101D0E00E102E0020000000093050E014E6F207408
:101D1E006F20726F7A706F637A796E616D79004B96
:101D2E006E7563696520637A65676F9C006E616E80
:0E1D3E0000696E66006F7666002E000D0A00CA
:103800000C94341C0C94511C0C94511C0C94511CA1
:103810000C94511C0C94511C0C94511C0C94511C74
:103820000C94511C0C94511C0C94511C0C94511C64
:103830000C94511C0C94511C0C94511C0C94511C54
:103840000C94511C0C94511C0C94511C0C94511C44
:103850000C94511C0C94511C0C94511C0C94511C34
:103860000C94511C0C94511C11241FBECFEFD4E0BA
:10387000DEBFCDBF11E0A0E0B1E0E4EAFFE302C0AB
:1038800005900D92A230B107D9F712E0A2E0B1E0A5
:1038900001C01D92AD30B107E1F70E94361D0C94B6
:1038A000D01F0C94001C982F9595959595959595FE
:1038B000905D8F708A307CF0282F295A8091C0004B
:1038C00085FFFCCF9093C6008091C00085FFFCCFA0
:1038D0002093C6000895282F205DF0CF982F809167
:1038E000C00085FFFCCF9093C6000895EF92FF9231
:1038F0000F931F93EE24FF2487018091C00087FD62
:1039000017C00894E11CF11C011D111D81E4E8168B
:1039100082E4F8068FE0080780E0180770F3E09172
:103920000401F091050109958091C00087FFE9CF5E
:103930008091C6001F910F91FF90EF9008950E9413
:10394000761C982F8091C00085FFFCCF9093C60015
:1039500091362CF490330CF09053892F089597559D
:10396000892F08951F930E949F1C182F0E949F1C4F
:103970001295107F810F1F910895882351F0982F81
:1039800091508091C00087FFFCCF8091C6009923A1
:10399000B9F708951F93182F0E94761C803249F0C2
:1039A000809103018F5F809303018530C1F01F91E7
:1039B00008958091C00085FFFCCF84E18093C6000C
:1039C0008091C00085FFFCCF1093C6008091C0009D
:1039D00085FFFCCF80E18093C6001F910895E091A0
:1039E0000401F091050109951F9108950E94761C2C
:1039F000803241F0809103018F5F80930301853015
:103A000081F008958091C00085FFFCCF84E1809310
:103A1000C6008091C00085FFFCCF80E18093C60086
:103A20000895E0910401F09105010995089510921F
:103A30000A028823D1F090E040E951E02D9A28EE67
:103A400033E0FA013197F1F721503040D1F72D984A
:103A500028EE33E0FA013197F1F721503040D1F7E9
:103A60009F5F981758F380930A0208953F924F92F0
:103A70005F926F927F928F929F92AF92BF92CF92FE
:103A8000DF92EF92FF920F931F93CF93DF9300008B
:103A900083E38093C4001092C50088E18093C10045
:103AA00086E08093C2005098589A259A81E00E943F
:103AB000171D44E1F42E3EE1E32E24E9D22E96E0D8
:103AC000C92E80E1B82EAA24A39401E4902E16E515
:103AD000812EB2E57B2EA0E26A2EF9E45F2EE3E5AB
:103AE0004E2E70E5372E0E94761C8033B1F1813363
:103AF00009F441C0803409F479C0813409F48CC0E0
:103B0000823471F1853409F47BC0803531F182351E
:103B100021F1813511F1853509F48DC0863509F41F
:103B20009DC0843609F4AEC0843709F41BC18537C3
:103B300009F485C1863709F47AC0809103018F5F4B
:103B400080930301853079F6E0910401F09105013D
:103B500009950E94761C803351F60E94F61CC3CF53
:103B600093E18091C00087FFFCCF8091C60099232C
:103B7000A1F39150F6CF0E94761C8032F1F680912D
:103B8000C00085FFFCCFF092C6008091C00085FF89
:103B9000FCCF9092C6008091C00085FFFCCF809240
:103BA000C6008091C00085FFFCCF7092C600809156
:103BB000C00085FFFCCF6092C6008091C00085FFE9
:103BC000FCCF5092C6008091C00085FFFCCF409290
:103BD000C6008091C00085FFFCCF3092C600809166
:103BE000C00085FFFCCFB092C6007DCF0E94761C3E
:103BF000863808F4B2CF0E94761C0E94F61C73CF60
:103C000094E08091C00087FFFCCF8091C60099238B
:103C100009F4A3CF9150F5CF0E94761C8038D1F0E3
:103C2000813861F1823809F499C0883979F080E0EF
:103C30000E94CA1C58CF0E94761C809306010E94E5
:103C4000761C809307010E94F61C4DCF83E00E94F2
:103C5000CA1C49CF82E00E94CA1C45CF0E94761C34
:103C6000803309F486C192E08091C00087FFFCCFC9
:103C70008091C6009923D9F29150F6CF81E00E943D
:103C8000CA1C31CF0E94761C809309020E94761CC8
:103C90008093080280910C028E7F80930C020E9418
:103CA000761C853429F480910C02816080930C028B
:103CB0008091080290910902892B89F000E010E0C0
:103CC0000E94761CF801E85FFE4F80830F5F1F4F54
:103CD00080910802909109020817190788F30E9441
:103CE000761C803209F029CF80910C0280FFD1C070
:103CF0004091060150910701440F551F5093070151
:103D000040930601A0910802B09109021097C9F0F2
:103D1000E8E0F1E09A01BD016E0F7F1FF999FECF37
:103D200032BD21BD819180BDFA9AF99A2F5F3F4F34
:103D3000E617F70799F74A0F5B1F50930701409367
:103D400006018091C00085FFFCCFF092C6008091F3
:103D5000C00085FFFCCFB092C600C5CE80E10E94B6
:103D6000CA1CC1CE0E94761C809309020E94761C58
:103D7000809308028091060190910701880F991F96
:103D800090930701809306010E94761C853409F404
:103D90007AC080910C028E7F80930C020E94761C68
:103DA000803209F0A0CE8091C00085FFFCCFF09258
:103DB000C600A0910802B09109021097B9F1809154
:103DC0000C02182F1170082F0270E0910601F0917B
:103DD00007019F012F5F3F4FB90140E050E01123E1
:103DE000B1F4002339F494918091C00085FFFCCF99
:103DF0009093C6004F5F5F4FCB010196F9014A17C0
:103E00005B0780F4BC012F5F3F4F112351F3F999F9
:103E1000FECFF2BDE1BDF89A90B58091C00085FF5C
:103E2000FCCFE6CF70930701609306018091C0003C
:103E300085FDD9CE8091C00085FFF8CFD4CE0E94F9
:103E4000761C803209F079CE8091C00085FFFCCFCE
:103E5000F092C6008091C00085FFFCCFE092C600C2
:103E60008091C00085FFFCCFD092C6008091C00039
:103E700085FFFCCFC092C6008091C00085FFFCCFBB
:103E8000B092C60030CE80910C02816080930C020B
:103E900085CF809107018823880F880B8A21809322
:103EA0000B028091060190910701880F991F909352
:103EB0000701809306018091080280FF09C080916C
:103EC00008029091090201969093090280930802DA
:103ED000F894F999FECF1127E0910601F0910701BE
:103EE000C8E0D1E08091080290910902103091F46D
:103EF0000091570001700130D9F303E0009357009F
:103F0000E8950091570001700130D9F301E1009369
:103F10005700E89509901990009157000170013001
:103F2000D9F301E000935700E8951395103498F009
:103F300011270091570001700130D9F305E000937B
:103F40005700E8950091570001700130D9F301E165
:103F500000935700E8953296029709F0C7CF1030CA
:103F600011F00296E5CF11248091C00085FFE9CEC3
:103F7000ECCE0E94761C0E94761C182F0E94761CA4
:103F8000112351F0113021F086E00E94CA1CABCD04
:103F900084E90E94CA1CA7CD8EE10E94CA1CA3CD51
:043FA000F894FFCFC3
:023FA40080009B
:0400000300003800C1
:00000001FF
